:100000000C942A000C9447000C9447000C94470071
:100010000C9447000C9447000C9447000C94BC03CC
:100020000C9447000C9447000C9447000C94470034
:100030000C9447000C9447000C9447000C94470024
:100040000C9447000C9447000C9447000C94470014
:100050000C94470011241FBECFE5D8E0DEBFCDBF12
:1000600010E0A0E6B0E0E4E0FEE002C005900D92F2
:10007000A43BB107D9F723E0A4EBB0E001C01D9287
:10008000AF30B207E1F70E9457000C9400070C94C0
:100090000000EC01CE010E9493002FEF89E698E169
:1000A000215080409040E1F700C00000F3CF87E688
:1000B00090E00E94870080E690E00E9493002FEF7E
:1000C00087EA91E6215080409040E1F700C00000AF
:1000D000A12CB12CC12CD12CE12CF12C01E02FE66C
:1000E00030E044E650E069E870E089E490E00E9486
:1000F000DE0302E02FE830E044E650E069EA70E019
:1001000089E490E00E94DE030E94EE04FFCF90BDE0
:1001100089B9549A539A80B5866A80BD08955D9BCB
:10012000FECF8CB90895CF93DF93EC0188818823AB
:1001300031F021960E948F0089918111FBCFDF91D0
:10014000CF910895CF93DF93EC01AAEBB0E001C00B
:10015000DF01ED91FC911197EC17FD07C8F3CD017C
:1001600012962D913C911397AD01420F531F4C17DE
:100170005D0751F4EA014A815B81240F351F139614
:100180003C932E931297ED012A813B81AE01420FE1
:10019000531FE417F507C1F44091B4005091B50026
:1001A0004E175F0771F042815381240F351F3B8347
:1001B0002A83DC01ED91FC912081318139832883F0
:1001C00005C0F983E88302C0F983E8838C179D0793
:1001D00019F0FC01D183C083DF91CF910895CF92B4
:1001E000DF92EF92FF920F931F93CF93DF93EC0177
:1001F0000E9420058091B4009091B500892B51F5A3
:10020000A0ECB0E0B093BB00A093BA001092BD0088
:100210001092BC00E0EBF2E0F093B500E093B40084
:10022000138212821182108280EF91E09093C300BA
:100230008093C200ED93FC939093BF008093BE0027
:100240009093B9008093B80080E090E89093B70055
:100250008093B6000091B6001091B700CE018023C4
:100260009123892B09F062C0209709F462C0AE0186
:100270004C5F5F4F09F460C0E090B800F090B900A7
:10028000E416F50608F45BC0C091BA00D091BB003B
:10029000EAEBF0E003C0E92FF82FE9012A813B8166
:1002A0002417350738F4288139819C2F8D2F21158B
:1002B000310589F78091B4009091B500C817D9072E
:1002C00009F440C0C080D18084E0C80ED11C888170
:1002D0009981918380832A813B81241B350B2930AE
:1002E000310550F0CE01840F951FFC01338322832A
:1002F0005B834A830E94A2008A819B81E81AF90AE3
:10030000F092B900E092B8002091BE003091BF0099
:10031000E216F30620F4F092BF00E092BE00082B34
:10032000192B1B830A83198218820EC0C12CD12C71
:100330000BC0C12CD12C08C0C12CD12C05C0C12CA4
:10034000D12C02C0C12CD12C0E94E5058C2D9D2DF5
:10035000DF91CF911F910F91FF90EF90DF90CF90A1
:100360000895CF93DF93009769F1FC0134972281C0
:1003700033814091B6005091B700BA0162237323D4
:10038000672B01F1FC01349760817181672BD1F4F7
:10039000EF014095509524233523338322830E9417
:1003A00020052091B8003091B9008A819B81820F8D
:1003B000931F9093B9008093B800CE010E94A200D1
:1003C0000E94E505DF91CF910895FC010396928389
:1003D00081832FEF3FEF3483238396838583908738
:1003E000878310820895FC01118610860895CF93AB
:1003F000DF939C01FB01DC011196CD91DC911297FA
:10040000D383C2838C819D81958384838C819D81DC
:10041000DC0113967C936E9312977D836C833187F6
:100420002087F90180818F5F8083DF91CF910895CC
:10043000CF93DF93FC01A085B185C281D3818481F4
:1004400095819D838C83C481D581828193819B8397
:100450008A831196CD91DC911297CE17DF0731F484
:100460008C819D8112969C938E9311971186108694
:100470008C9181508C93DF91CF91089531E1FC01F3
:100480003083319722E22083FC013297A3E3A083DB
:10049000FC0133976083FC0134977083FC0135972E
:1004A0001082FC01369760E86083FC013797108268
:1004B000FC01389762E06083FC01399763E0608358
:1004C000FC013A9764E06083FC013B9765E0608340
:1004D000FC013C9766E06083FC013D9767E0608328
:1004E000FC013E9768E06083FC013F9769E0608310
:1004F000FC01709760E16083FC0171973083FC011F
:10050000729732E13083FC01739733E13083FC0151
:10051000749734E13083FC01759735E13083FC0139
:10052000769736E13083FC01779737E13083FC0121
:10053000789738E13083FC01799739E13083FC0109
:100540007A9730E23083FC017B9731E23083FC0103
:100550007C972083FC017D9723E22083FC017E971A
:100560004083FC017F975083FC01B09726E22083F3
:10057000FC01B19727E22083FC01B29728E2208397
:10058000FC01B39729E22083FC01B49720E3208388
:10059000FC01B59721E320839C0126523109822F6B
:1005A000932F08951BBC89EF8ABD8BE08EBD89B760
:1005B000806189BFA091C402B091C502CD91CDBF29
:1005C000DD91DEBFFF91EF91DF91CF91BF91AF91B0
:1005D0009F918F917F916F915F914F913F912F915B
:1005E0001F910F91FF90EF90DF90CF90BF90AF9051
:1005F0009F908F907F906F905F904F903F902F9043
:100600001F900F900FBE0F90089581E008950F92F4
:100610000FB6F8940F921F9211242F923F924F928F
:100620005F926F927F928F929F92AF92BF92CF9282
:10063000DF92EF92FF920F931F932F933F934F936D
:100640005F936F937F938F939F93AF93BF93CF935A
:10065000DF93EF93FF93A091C402B091C5020DB652
:100660000D920EB60D920E94A206A091C402B09106
:10067000C502CD91CDBFDD91DEBFFF91EF91DF913E
:10068000CF91BF91AF919F918F917F916F915F912A
:100690004F913F912F911F910F91FF90EF90DF901D
:1006A000CF90BF90AF909F908F907F906F905F9012
:1006B0004F903F902F901F900F900FBE0F90089576
:1006C0000F920FB6F8940F921F9211242F923F921F
:1006D0004F925F926F927F928F929F92AF92BF9252
:1006E000CF92DF92EF92FF920F931F932F933F933E
:1006F0004F935F936F937F938F939F93AF93BF932A
:10070000CF93DF93EF93FF93A091C402B091C50202
:100710000DB60D920EB60D920E94260581110E9413
:10072000A206A091C402B091C502CD91CDBFDD91CA
:10073000DEBFFF91EF91DF91CF91BF91AF919F917C
:100740008F917F916F915F914F913F912F911F9169
:100750000F91FF90EF90DF90CF90BF90AF909F9060
:100760008F907F906F905F904F903F902F901F9051
:100770000F900FBE0F9008950E9460031895E091AE
:10078000C202F091C3028081811107C08FEF9FEFF9
:100790009093B6028093B5020895E091C202F09161
:1007A000C3020580F681E02D0680F781E02D82816D
:1007B00093819093B6028093B50208954F925F9211
:1007C0006F927F928F929F92AF92BF92CF92DF9261
:1007D000EF92FF920F931F93CF93DF934C015B0136
:1007E0002A013901C114D10439F4CA010E94EF0071
:1007F0006C01009709F4E0C086E290E00E94EF00EF
:10080000EC01009771F0D88ECF8A81E0481A510828
:10081000C40CD51CD5018C91898F8C91811105C098
:1008200015C0C6010E94B101C7C0AE01465E5F4F50
:10083000F501319627E0CF013191DA013D93AD0109
:10084000DC018C91882311F02150A9F718A2102FF8
:10085000043008F013E01E8B5E01B2E0AB0EB11C59
:10086000C5010E94F301CE010C960E94F301D987C5
:10087000C88784E090E0811B91099D878C87DB8B82
:10088000CA8B19A21AA21BA21CA21DA2A301B40109
:10089000C6010E943E0299838883E114F10419F095
:1008A000F701D183C0830FB6F8940F928091BE02F6
:1008B0008F5F8093BE028091C4029091C502892B04
:1008C000E1F5D093C502C093C4028091BE0281308D
:1008D00009F042C0E12CF12CC701880F991F880F45
:1008E000991F880F991F8E0D9F1D89539D4F0E9440
:1008F000E501FFEFEF1AFF0A84E0E816F10461F763
:100900008BEE92E00E94E50184EF92E00E94E50107
:100910008DEF92E00E94E50186E093E00E94E50100
:100920008BEE92E09093C3028093C20284EF92E038
:100930009093C1028093C0020FC08091BA028111CE
:100940000BC0E091C402F091C5028689081720F01F
:10095000D093C502C093C4028091C6028F5F80937A
:10096000C6028E899091BB02981710F48093BB0247
:1009700090E09C01220F331F220F331F220F331FE1
:10098000820F931FB50189539D4F0E94F7010F906D
:100990000FBE8091BA02882359F0E091C402F09111
:1009A000C5028689801730F40E94070381E005C0E4
:1009B00081E003C081E001C08FEFDF91CF911F91F3
:1009C0000F91FF90EF90DF90CF90BF90AF909F90EE
:1009D0008F907F906F905F904F900895AF92BF92ED
:1009E000CF92DF92EF92FF920F93A12CB12CC12CEA
:1009F000D12CE12CF12C00E020E030E044E650E086
:100A00006FEA70E086E696E00E94DE03813081F4B2
:100A1000F8948FEF9FEF9093B6028093B50281E038
:100A20008093BA021092BD021092BC020E94D202C0
:100A30000F91FF90EF90DF90CF90BF90AF9008950F
:100A40008091B4028F5F8093B4020895CF92DF92B9
:100A5000EF92FF920F931F93CF93DF938091B40295
:100A600081119AC08091BC029091BD020196909331
:100A7000BD028093BC02E090BC02F090BD02E11484
:100A8000F104B9F48091C2029091C3022091C00296
:100A90003091C1023093C3022093C2029093C102ED
:100AA0008093C0028091B7028F5F8093B7020E944B
:100AB000BF038091B5029091B602E816F90620F4C2
:100AC000D12C54C0DC2C03C0D12CCC24C394E09195
:100AD000C202F091C3028081811107C08FEF9FEFA6
:100AE0009093B6028093B50241C0E091C202F091AA
:100AF000C3020580F681E02DC681D7812A813B8122
:100B0000E216F30628F43093B6022093B5022EC005
:100B10008E010E5F1F4FC8010E9418028C899D89AB
:100B2000892B21F0CE010C960E9418022E8980910B
:100B3000BB02821710F42093BB0230E0C901880F7A
:100B4000991F880F991F880F991F820F931FB80153
:100B500089539D4F0E94F701E091C402F091C502B4
:100B60009E898689981708F0ADCFB1CFE091C40275
:100B7000F091C502868990E0FC01EE0FFF1FEE0F99
:100B8000FF1FEE0FFF1F8E0F9F1FFC01E953FD4F4C
:100B90008081823040F409C08091B9028F5F8093D8
:100BA000B902D12C02C0DD24D3948091B8028823ED
:100BB00011F0DD24D3948D2DDF91CF911F910F91F2
:100BC000FF90EF90DF90CF900895DF92EF92FF9229
:100BD0000F931F93CF93DF930FB6F8940F928091EA
:100BE000B40281508093B4028091B402811161C03B
:100BF0008091BE02811132C05FC0E0910203F0918A
:100C00000303C681D781CE010C960E9418028E0183
:100C10000E5F1F4FC8010E9418028E899091BB027F
:100C2000981710F48093BB0290E09C01220F331FB1
:100C3000220F331F220F331F820F931FB8018953D6
:100C40009D4F0E94F701E091C402F091C5029E8978
:100C50008689981758F0D092B80208C00F2EFDEF81
:100C6000EF2EF2E0FF2EF02DDD24D394F7018081EA
:100C70008111C3CF8091B902882399F08091B90284
:100C8000882379F0C1E00E9426058111C093B80243
:100C90008091B90281508093B9028091B90281118B
:100CA000F2CF8091B802813031F40E94070381E0D5
:100CB00003C080E001C080E00F900FBEDF91CF91B4
:100CC0001F910F91FF90EF90DF900895C6E0D3E061
:100CD0000F2EF7ECEF2EF2E0FF2EF02D28C00E9431
:100CE000200518810E94E505112309F10FB6F8943B
:100CF0000F92E0910B03F0910C0306811781C8015C
:100D000002960E9418028091BE0281508093BE021A
:100D10008091BF0281508093BF020F900FBEF801F7
:100D20008789908D0E94B101C8010E94B101809114
:100D3000BF028111D4CFF70180818230C0F30E94BD
:100D40000703F5CF8091B402882321F081E08093DE
:100D5000B80208951092B8028091BB0290E0FC01A5
:100D6000EE0FFF1FEE0FFF1FEE0FFF1F8E0F9F1FD7
:100D7000FC01E953FD4F8081811117C08091BB02B6
:100D800081508093BB028091BB0290E0FC01EE0F8A
:100D9000FF1FEE0FFF1FEE0FFF1F8E0F9F1FFC01A7
:100DA000E953FD4F8081882349F3E091BB02F0E0D5
:100DB000CF01880F991F880F991F880F991FE80F7F
:100DC000F91FE953FD4FA181B28112960D90BC919C
:100DD000A02DB283A183CF010396A817B90731F4E0
:100DE00012968D919C911397928381830180F28159
:100DF000E02D868197819093C5028093C402089567
:040E0000F894FFCF94
:100E040048656C6C6F20554152542E2E2E2E001BBB
:100E14005B33326D205461736B203120697320720F
:100E2400756E6E696E670D0A005461736B31001B39
:100E34005B33336D205461736B20322069732072ED
:100E4400756E6E696E67090A005461736B320049EE
:040E5400444C4500C5
:00000001FF
