S01000004C31315F52544F532E73726563BF
S11300000C942A000C9447000C9447000C9447006D
S11300100C9447000C9447000C9447000C94ED009A
S11300200C9447000C9447000C9447000C94470030
S11300300C9447000C9447000C9447000C94470020
S11300400C9447000C9447000C9447000C94470010
S11300500C94470011241FBECFE5D8E0DEBFCDBF0E
S113006010E0A0E6B0E0ECE5F4E002C005900D92EB
S1130070A036B107D9F720E0A0E6B0E001C01D9298
S1130080A339B207E1F70E9449000C942C020C94A6
S11300900000FFCFCF93DF939C01FB01DC0111969D
S11300A0CD91DC911297D383C2838C819D819583FA
S11300B084838C819D81DC0113967C936E931297CB
S11300C07D836C8331872087F90180818F5F8083F2
S11300D0DF91CF910895CF93DF93FC01A085B18583
S11300E0C281D381848195819D838C83C481D58190
S11300F0828193819B838A831196CD91DC9112979F
S1130100CE17DF0731F48C819D8112969C938E93D8
S11301101197118610868C9181508C93DF91CF9129
S113012008950F920FB6F8940F921F9211242F92F4
S11301303F924F925F926F927F928F929F92AF9273
S1130140BF92CF92DF92EF92FF920F931F932F9360
S11301503F934F935F936F937F938F939F93AF934B
S1130160BF93CF93DF93EF93FF93A0916D00B09172
S11301706E000DB60D920EB60D920E940F01811104
S11301800E94CE01A0916D00B0916E00CD91CDBFC3
S1130190DD91DEBFFF91EF91DF91CF91BF91AF91E0
S11301A09F918F917F916F915F914F913F912F918B
S11301B01F910F91FF90EF90DF90CF90BF90AF9081
S11301C09F908F907F906F905F904F903F902F9073
S11301D01F900F900FBE0F9008950E9491001895E4
S11301E0E0916B00F0916C008081811107C08FEF6A
S11301F09FEF90936200809361000895E0916B00FB
S1130200F0916C000580F681E02D0680F781E02DE9
S11302108281938190936200809361000895CF92CC
S1130220DF92EF92FF920F931F93CF93DF9380910E
S1130230600081119AC080916700909168000196D6
S11302409093680080936700E0906700F0906800E6
S1130250E114F104B9F480916B0090916C00209149
S1130260690030916A0030936C0020936B00909386
S11302706A0080936900809163008F5F80936300BC
S11302800E94F0008091610090916200E816F906E6
S113029020F4D12C54C0DC2C03C0D12CCC24C39426
S11302A0E0916B00F0916C008081811107C08FEFA9
S11302B09FEF909362008093610041C0E0916B00D6
S11302C0F0916C000580F681E02DC681D7812A81EA
S11302D03B81E216F30628F4309362002093610018
S11302E02EC08E010E5F1F4FC8010E946B008C89C7
S11302F09D89892B21F0CE010C960E946B002E89DA
S113030080916600821710F42093660030E0C901E2
S1130310880F991F880F991F880F991F820F931FA9
S1130320B80181599F4F0E944A00E0916D00F091FD
S11303306E009E898689981708F0ADCFB1CFE09101
S11303406D00F0916E00868990E0FC01EE0FFF1FB6
S1130350EE0FFF1FEE0FFF1F8E0F9F1FFC01E159D1
S1130360FF4F8081823040F409C0809165008F5F27
S113037080936500D12C02C0DD24D3948091640065
S1130380882311F0DD24D3948D2DDF91CF911F911B
S11303900F91FF90EF90DF90CF90089580916000CF
S11303A0882321F081E08093640008951092640012
S11303B08091660090E0FC01EE0FFF1FEE0FFF1F1F
S11303C0EE0FFF1F8E0F9F1FFC01E159FF4F80812D
S11303D0811117C0809166008150809366008091DE
S11303E0660090E0FC01EE0FFF1FEE0FFF1FEE0F03
S11303F0FF1F8E0F9F1FFC01E159FF4F808188234F
S113040049F3E0916600F0E0CF01880F991F880F4F
S1130410991F880F991FE80FF91FE159FF4FA18118
S1130420B28112960D90BC91A02DB283A183CF010D
S11304300396A817B90731F412968D919C911397DE
S1130440928381830180F281E02D8681978190934C
S10F04506E0080936D000895F894FFCFB7
S9030000FC
